{
  "_format": "hh-sol-artifact-1",
  "contractName": "VestingWalletUpgradeable",
  "sourceName": "@openzeppelin/contracts-upgradeable/finance/VestingWalletUpgradeable.sol",
  "abi": [
    {
      "anonymous": false,
      "inputs": [
        {
          "indexed": true,
          "internalType": "address",
          "name": "token",
          "type": "address"
        },
        {
          "indexed": false,
          "internalType": "uint256",
          "name": "amount",
          "type": "uint256"
        }
      ],
      "name": "ERC20Released",
      "type": "event"
    },
    {
      "anonymous": false,
      "inputs": [
        {
          "indexed": false,
          "internalType": "uint256",
          "name": "amount",
          "type": "uint256"
        }
      ],
      "name": "EtherReleased",
      "type": "event"
    },
    {
      "inputs": [],
      "name": "beneficiary",
      "outputs": [
        {
          "internalType": "address",
          "name": "",
          "type": "address"
        }
      ],
      "stateMutability": "view",
      "type": "function"
    },
    {
      "inputs": [],
      "name": "duration",
      "outputs": [
        {
          "internalType": "uint256",
          "name": "",
          "type": "uint256"
        }
      ],
      "stateMutability": "view",
      "type": "function"
    },
    {
      "inputs": [
        {
          "internalType": "address",
          "name": "token",
          "type": "address"
        }
      ],
      "name": "release",
      "outputs": [],
      "stateMutability": "nonpayable",
      "type": "function"
    },
    {
      "inputs": [],
      "name": "release",
      "outputs": [],
      "stateMutability": "nonpayable",
      "type": "function"
    },
    {
      "inputs": [],
      "name": "released",
      "outputs": [
        {
          "internalType": "uint256",
          "name": "",
          "type": "uint256"
        }
      ],
      "stateMutability": "view",
      "type": "function"
    },
    {
      "inputs": [
        {
          "internalType": "address",
          "name": "token",
          "type": "address"
        }
      ],
      "name": "released",
      "outputs": [
        {
          "internalType": "uint256",
          "name": "",
          "type": "uint256"
        }
      ],
      "stateMutability": "view",
      "type": "function"
    },
    {
      "inputs": [],
      "name": "start",
      "outputs": [
        {
          "internalType": "uint256",
          "name": "",
          "type": "uint256"
        }
      ],
      "stateMutability": "view",
      "type": "function"
    },
    {
      "inputs": [
        {
          "internalType": "uint64",
          "name": "timestamp",
          "type": "uint64"
        }
      ],
      "name": "vestedAmount",
      "outputs": [
        {
          "internalType": "uint256",
          "name": "",
          "type": "uint256"
        }
      ],
      "stateMutability": "view",
      "type": "function"
    },
    {
      "inputs": [
        {
          "internalType": "address",
          "name": "token",
          "type": "address"
        },
        {
          "internalType": "uint64",
          "name": "timestamp",
          "type": "uint64"
        }
      ],
      "name": "vestedAmount",
      "outputs": [
        {
          "internalType": "uint256",
          "name": "",
          "type": "uint256"
        }
      ],
      "stateMutability": "view",
      "type": "function"
    },
    {
      "stateMutability": "payable",
      "type": "receive"
    }
  ],
  "bytecode": "0x608060405234801561001057600080fd5b506111c7806100206000396000f3fe60806040526004361061008a5760003560e01c8063810ec23b11610059578063810ec23b1461015257806386d1a69f1461018f57806396132521146101a65780639852595c146101d1578063be9a65551461020e57610091565b80630a17b06b146100965780630fb5a6b4146100d357806319165587146100fe57806338af3eed1461012757610091565b3661009157005b600080fd5b3480156100a257600080fd5b506100bd60048036038101906100b891906109ff565b610239565b6040516100ca9190610a45565b60405180910390f35b3480156100df57600080fd5b506100e861025e565b6040516100f59190610a45565b60405180910390f35b34801561010a57600080fd5b5061012560048036038101906101209190610abe565b610286565b005b34801561013357600080fd5b5061013c610361565b6040516101499190610afa565b60405180910390f35b34801561015e57600080fd5b5061017960048036038101906101749190610b15565b61038b565b6040516101869190610a45565b60405180910390f35b34801561019b57600080fd5b506101a461042b565b005b3480156101b257600080fd5b506101bb6104ae565b6040516101c89190610a45565b60405180910390f35b3480156101dd57600080fd5b506101f860048036038101906101f39190610abe565b6104b8565b6040516102059190610a45565b60405180910390f35b34801561021a57600080fd5b50610223610501565b6040516102309190610a45565b60405180910390f35b60006102576102466104ae565b476102519190610b84565b83610529565b9050919050565b6000603660009054906101000a900467ffffffffffffffff1667ffffffffffffffff16905090565b6000610291826104b8565b61029b834261038b565b6102a59190610bda565b905080603460008473ffffffffffffffffffffffffffffffffffffffff1673ffffffffffffffffffffffffffffffffffffffff16815260200190815260200160002060008282546102f69190610b84565b925050819055508173ffffffffffffffffffffffffffffffffffffffff167fc0e523490dd523c33b1878c9eb14ff46991e3f5b2cd33710918618f2a39cba1b826040516103439190610a45565b60405180910390a261035d82610357610361565b836105c3565b5050565b6000603560009054906101000a900473ffffffffffffffffffffffffffffffffffffffff16905090565b6000610423610399846104b8565b8473ffffffffffffffffffffffffffffffffffffffff166370a08231306040518263ffffffff1660e01b81526004016103d29190610afa565b602060405180830381865afa1580156103ef573d6000803e3d6000fd5b505050506040513d601f19601f820116820180604052508101906104139190610c3a565b61041d9190610b84565b83610529565b905092915050565b60006104356104ae565b61043e42610239565b6104489190610bda565b9050806033600082825461045c9190610b84565b925050819055507fda9d4e5f101b8b9b1c5b76d0c5a9f7923571acfc02376aa076b75a8c080c956b816040516104929190610a45565b60405180910390a16104ab6104a5610361565b82610649565b50565b6000603354905090565b6000603460008373ffffffffffffffffffffffffffffffffffffffff1673ffffffffffffffffffffffffffffffffffffffff168152602001908152602001600020549050919050565b6000603560149054906101000a900467ffffffffffffffff1667ffffffffffffffff16905090565b6000610533610501565b8267ffffffffffffffff16101561054d57600090506105bd565b61055561025e565b61055d610501565b6105679190610b84565b8267ffffffffffffffff161115610580578290506105bd565b61058861025e565b610590610501565b8367ffffffffffffffff166105a59190610bda565b846105b09190610c67565b6105ba9190610cf0565b90505b92915050565b6106448363a9059cbb60e01b84846040516024016105e2929190610d21565b604051602081830303815290604052907bffffffffffffffffffffffffffffffffffffffffffffffffffffffff19166020820180517bffffffffffffffffffffffffffffffffffffffffffffffffffffffff838183161783525050505061073d565b505050565b8047101561068c576040517f08c379a000000000000000000000000000000000000000000000000000000000815260040161068390610da7565b60405180910390fd5b60008273ffffffffffffffffffffffffffffffffffffffff16826040516106b290610df8565b60006040518083038185875af1925050503d80600081146106ef576040519150601f19603f3d011682016040523d82523d6000602084013e6106f4565b606091505b5050905080610738576040517f08c379a000000000000000000000000000000000000000000000000000000000815260040161072f90610e7f565b60405180910390fd5b505050565b600061079f826040518060400160405280602081526020017f5361666545524332303a206c6f772d6c6576656c2063616c6c206661696c65648152508573ffffffffffffffffffffffffffffffffffffffff166108049092919063ffffffff16565b90506000815111156107ff57808060200190518101906107bf9190610ed7565b6107fe576040517f08c379a00000000000000000000000000000000000000000000000000000000081526004016107f590610f76565b60405180910390fd5b5b505050565b6060610813848460008561081c565b90509392505050565b606082471015610861576040517f08c379a000000000000000000000000000000000000000000000000000000000815260040161085890611008565b60405180910390fd5b61086a85610930565b6108a9576040517f08c379a00000000000000000000000000000000000000000000000000000000081526004016108a090611074565b60405180910390fd5b6000808673ffffffffffffffffffffffffffffffffffffffff1685876040516108d29190611103565b60006040518083038185875af1925050503d806000811461090f576040519150601f19603f3d011682016040523d82523d6000602084013e610914565b606091505b5091509150610924828286610953565b92505050949350505050565b6000808273ffffffffffffffffffffffffffffffffffffffff163b119050919050565b60608315610963578290506109b3565b6000835111156109765782518084602001fd5b816040517f08c379a00000000000000000000000000000000000000000000000000000000081526004016109aa919061116f565b60405180910390fd5b9392505050565b600080fd5b600067ffffffffffffffff82169050919050565b6109dc816109bf565b81146109e757600080fd5b50565b6000813590506109f9816109d3565b92915050565b600060208284031215610a1557610a146109ba565b5b6000610a23848285016109ea565b91505092915050565b6000819050919050565b610a3f81610a2c565b82525050565b6000602082019050610a5a6000830184610a36565b92915050565b600073ffffffffffffffffffffffffffffffffffffffff82169050919050565b6000610a8b82610a60565b9050919050565b610a9b81610a80565b8114610aa657600080fd5b50565b600081359050610ab881610a92565b92915050565b600060208284031215610ad457610ad36109ba565b5b6000610ae284828501610aa9565b91505092915050565b610af481610a80565b82525050565b6000602082019050610b0f6000830184610aeb565b92915050565b60008060408385031215610b2c57610b2b6109ba565b5b6000610b3a85828601610aa9565b9250506020610b4b858286016109ea565b9150509250929050565b7f4e487b7100000000000000000000000000000000000000000000000000000000600052601160045260246000fd5b6000610b8f82610a2c565b9150610b9a83610a2c565b9250827fffffffffffffffffffffffffffffffffffffffffffffffffffffffffffffffff03821115610bcf57610bce610b55565b5b828201905092915050565b6000610be582610a2c565b9150610bf083610a2c565b925082821015610c0357610c02610b55565b5b828203905092915050565b610c1781610a2c565b8114610c2257600080fd5b50565b600081519050610c3481610c0e565b92915050565b600060208284031215610c5057610c4f6109ba565b5b6000610c5e84828501610c25565b91505092915050565b6000610c7282610a2c565b9150610c7d83610a2c565b9250817fffffffffffffffffffffffffffffffffffffffffffffffffffffffffffffffff0483118215151615610cb657610cb5610b55565b5b828202905092915050565b7f4e487b7100000000000000000000000000000000000000000000000000000000600052601260045260246000fd5b6000610cfb82610a2c565b9150610d0683610a2c565b925082610d1657610d15610cc1565b5b828204905092915050565b6000604082019050610d366000830185610aeb565b610d436020830184610a36565b9392505050565b600082825260208201905092915050565b7f416464726573733a20696e73756666696369656e742062616c616e6365000000600082015250565b6000610d91601d83610d4a565b9150610d9c82610d5b565b602082019050919050565b60006020820190508181036000830152610dc081610d84565b9050919050565b600081905092915050565b50565b6000610de2600083610dc7565b9150610ded82610dd2565b600082019050919050565b6000610e0382610dd5565b9150819050919050565b7f416464726573733a20756e61626c6520746f2073656e642076616c75652c207260008201527f6563697069656e74206d61792068617665207265766572746564000000000000602082015250565b6000610e69603a83610d4a565b9150610e7482610e0d565b604082019050919050565b60006020820190508181036000830152610e9881610e5c565b9050919050565b60008115159050919050565b610eb481610e9f565b8114610ebf57600080fd5b50565b600081519050610ed181610eab565b92915050565b600060208284031215610eed57610eec6109ba565b5b6000610efb84828501610ec2565b91505092915050565b7f5361666545524332303a204552433230206f7065726174696f6e20646964206e60008201527f6f74207375636365656400000000000000000000000000000000000000000000602082015250565b6000610f60602a83610d4a565b9150610f6b82610f04565b604082019050919050565b60006020820190508181036000830152610f8f81610f53565b9050919050565b7f416464726573733a20696e73756666696369656e742062616c616e636520666f60008201527f722063616c6c0000000000000000000000000000000000000000000000000000602082015250565b6000610ff2602683610d4a565b9150610ffd82610f96565b604082019050919050565b6000602082019050818103600083015261102181610fe5565b9050919050565b7f416464726573733a2063616c6c20746f206e6f6e2d636f6e7472616374000000600082015250565b600061105e601d83610d4a565b915061106982611028565b602082019050919050565b6000602082019050818103600083015261108d81611051565b9050919050565b600081519050919050565b60005b838110156110bd5780820151818401526020810190506110a2565b838111156110cc576000848401525b50505050565b60006110dd82611094565b6110e78185610dc7565b93506110f781856020860161109f565b80840191505092915050565b600061110f82846110d2565b915081905092915050565b600081519050919050565b6000601f19601f8301169050919050565b60006111418261111a565b61114b8185610d4a565b935061115b81856020860161109f565b61116481611125565b840191505092915050565b600060208201905081810360008301526111898184611136565b90509291505056fea26469706673582212206becb22f372cd1ab8bfda9eb50449f5109c091d3032ccd5875400d0aedb3ba7564736f6c634300080b0033",
  "linkReferences": {},
  "deployedLinkReferences": {}
}