{
  "_format": "hh-sol-artifact-1",
  "contractName": "ArrowVestingBase",
  "sourceName": "contracts/ArrowVestingBase.sol",
  "abi": [
    {
      "inputs": [],
      "stateMutability": "nonpayable",
      "type": "constructor"
    },
    {
      "anonymous": false,
      "inputs": [
        {
          "indexed": true,
          "internalType": "address",
          "name": "token",
          "type": "address"
        },
        {
          "indexed": false,
          "internalType": "uint256",
          "name": "amount",
          "type": "uint256"
        }
      ],
      "name": "ERC20Released",
      "type": "event"
    },
    {
      "anonymous": false,
      "inputs": [
        {
          "indexed": false,
          "internalType": "uint256",
          "name": "amount",
          "type": "uint256"
        }
      ],
      "name": "EtherReleased",
      "type": "event"
    },
    {
      "inputs": [],
      "name": "beneficiary",
      "outputs": [
        {
          "internalType": "address",
          "name": "",
          "type": "address"
        }
      ],
      "stateMutability": "view",
      "type": "function"
    },
    {
      "inputs": [],
      "name": "duration",
      "outputs": [
        {
          "internalType": "uint256",
          "name": "",
          "type": "uint256"
        }
      ],
      "stateMutability": "view",
      "type": "function"
    },
    {
      "inputs": [
        {
          "internalType": "address",
          "name": "beneficiaryAddress",
          "type": "address"
        },
        {
          "internalType": "uint64",
          "name": "startTimestamp",
          "type": "uint64"
        },
        {
          "internalType": "uint64",
          "name": "durationSeconds",
          "type": "uint64"
        }
      ],
      "name": "initialize",
      "outputs": [],
      "stateMutability": "nonpayable",
      "type": "function"
    },
    {
      "inputs": [
        {
          "internalType": "address",
          "name": "token",
          "type": "address"
        }
      ],
      "name": "release",
      "outputs": [],
      "stateMutability": "nonpayable",
      "type": "function"
    },
    {
      "inputs": [],
      "name": "release",
      "outputs": [],
      "stateMutability": "nonpayable",
      "type": "function"
    },
    {
      "inputs": [],
      "name": "released",
      "outputs": [
        {
          "internalType": "uint256",
          "name": "",
          "type": "uint256"
        }
      ],
      "stateMutability": "view",
      "type": "function"
    },
    {
      "inputs": [
        {
          "internalType": "address",
          "name": "token",
          "type": "address"
        }
      ],
      "name": "released",
      "outputs": [
        {
          "internalType": "uint256",
          "name": "",
          "type": "uint256"
        }
      ],
      "stateMutability": "view",
      "type": "function"
    },
    {
      "inputs": [],
      "name": "start",
      "outputs": [
        {
          "internalType": "uint256",
          "name": "",
          "type": "uint256"
        }
      ],
      "stateMutability": "view",
      "type": "function"
    },
    {
      "inputs": [
        {
          "internalType": "uint64",
          "name": "timestamp",
          "type": "uint64"
        }
      ],
      "name": "vestedAmount",
      "outputs": [
        {
          "internalType": "uint256",
          "name": "",
          "type": "uint256"
        }
      ],
      "stateMutability": "view",
      "type": "function"
    },
    {
      "inputs": [
        {
          "internalType": "address",
          "name": "token",
          "type": "address"
        },
        {
          "internalType": "uint64",
          "name": "timestamp",
          "type": "uint64"
        }
      ],
      "name": "vestedAmount",
      "outputs": [
        {
          "internalType": "uint256",
          "name": "",
          "type": "uint256"
        }
      ],
      "stateMutability": "view",
      "type": "function"
    },
    {
      "stateMutability": "payable",
      "type": "receive"
    }
  ],
  "bytecode": "0x60806040523480156200001157600080fd5b50600060019054906101000a900460ff166200003c5760008054906101000a900460ff16156200004d565b6200004c6200010960201b60201c565b5b6200008f576040517f08c379a00000000000000000000000000000000000000000000000000000000081526004016200008690620001d1565b60405180910390fd5b60008060019054906101000a900460ff161590508015620000e0576001600060016101000a81548160ff02191690831515021790555060016000806101000a81548160ff0219169083151502179055505b8015620001025760008060016101000a81548160ff0219169083151502179055505b50620001f3565b600062000121306200012760201b6200064f1760201c565b15905090565b6000808273ffffffffffffffffffffffffffffffffffffffff163b119050919050565b600082825260208201905092915050565b7f496e697469616c697a61626c653a20636f6e747261637420697320616c72656160008201527f647920696e697469616c697a6564000000000000000000000000000000000000602082015250565b6000620001b9602e836200014a565b9150620001c6826200015b565b604082019050919050565b60006020820190508181036000830152620001ec81620001aa565b9050919050565b6116bd80620002036000396000f3fe6080604052600436106100955760003560e01c806386d1a69f1161005957806386d1a69f1461019a57806396132521146101b15780639852595c146101dc578063989a836614610219578063be9a6555146102425761009c565b80630a17b06b146100a15780630fb5a6b4146100de578063191655871461010957806338af3eed14610132578063810ec23b1461015d5761009c565b3661009c57005b600080fd5b3480156100ad57600080fd5b506100c860048036038101906100c39190610cec565b61026d565b6040516100d59190610d32565b60405180910390f35b3480156100ea57600080fd5b506100f3610292565b6040516101009190610d32565b60405180910390f35b34801561011557600080fd5b50610130600480360381019061012b9190610dab565b6102ba565b005b34801561013e57600080fd5b50610147610395565b6040516101549190610de7565b60405180910390f35b34801561016957600080fd5b50610184600480360381019061017f9190610e02565b6103bf565b6040516101919190610d32565b60405180910390f35b3480156101a657600080fd5b506101af61045f565b005b3480156101bd57600080fd5b506101c66104e2565b6040516101d39190610d32565b60405180910390f35b3480156101e857600080fd5b5061020360048036038101906101fe9190610dab565b6104ec565b6040516102109190610d32565b60405180910390f35b34801561022557600080fd5b50610240600480360381019061023b9190610e42565b610535565b005b34801561024e57600080fd5b50610257610627565b6040516102649190610d32565b60405180910390f35b600061028b61027a6104e2565b476102859190610ec4565b83610672565b9050919050565b6000603660009054906101000a900467ffffffffffffffff1667ffffffffffffffff16905090565b60006102c5826104ec565b6102cf83426103bf565b6102d99190610f1a565b905080603460008473ffffffffffffffffffffffffffffffffffffffff1673ffffffffffffffffffffffffffffffffffffffff168152602001908152602001600020600082825461032a9190610ec4565b925050819055508173ffffffffffffffffffffffffffffffffffffffff167fc0e523490dd523c33b1878c9eb14ff46991e3f5b2cd33710918618f2a39cba1b826040516103779190610d32565b60405180910390a26103918261038b610395565b8361070c565b5050565b6000603560009054906101000a900473ffffffffffffffffffffffffffffffffffffffff16905090565b60006104576103cd846104ec565b8473ffffffffffffffffffffffffffffffffffffffff166370a08231306040518263ffffffff1660e01b81526004016104069190610de7565b602060405180830381865afa158015610423573d6000803e3d6000fd5b505050506040513d601f19601f820116820180604052508101906104479190610f7a565b6104519190610ec4565b83610672565b905092915050565b60006104696104e2565b6104724261026d565b61047c9190610f1a565b905080603360008282546104909190610ec4565b925050819055507fda9d4e5f101b8b9b1c5b76d0c5a9f7923571acfc02376aa076b75a8c080c956b816040516104c69190610d32565b60405180910390a16104df6104d9610395565b82610792565b50565b6000603354905090565b6000603460008373ffffffffffffffffffffffffffffffffffffffff1673ffffffffffffffffffffffffffffffffffffffff168152602001908152602001600020549050919050565b600060019054906101000a900460ff1661055d5760008054906101000a900460ff1615610566565b610565610886565b5b6105a5576040517f08c379a000000000000000000000000000000000000000000000000000000000815260040161059c9061102a565b60405180910390fd5b60008060019054906101000a900460ff1615905080156105f5576001600060016101000a81548160ff02191690831515021790555060016000806101000a81548160ff0219169083151502179055505b610600848484610897565b80156106215760008060016101000a81548160ff0219169083151502179055505b50505050565b6000603560149054906101000a900467ffffffffffffffff1667ffffffffffffffff16905090565b6000808273ffffffffffffffffffffffffffffffffffffffff163b119050919050565b600061067c610627565b8267ffffffffffffffff1610156106965760009050610706565b61069e610292565b6106a6610627565b6106b09190610ec4565b8267ffffffffffffffff1611156106c957829050610706565b6106d1610292565b6106d9610627565b8367ffffffffffffffff166106ee9190610f1a565b846106f9919061104a565b61070391906110d3565b90505b92915050565b61078d8363a9059cbb60e01b848460405160240161072b929190611104565b604051602081830303815290604052907bffffffffffffffffffffffffffffffffffffffffffffffffffffffff19166020820180517bffffffffffffffffffffffffffffffffffffffffffffffffffffffff83818316178352505050506108f6565b505050565b804710156107d5576040517f08c379a00000000000000000000000000000000000000000000000000000000081526004016107cc90611179565b60405180910390fd5b60008273ffffffffffffffffffffffffffffffffffffffff16826040516107fb906111ca565b60006040518083038185875af1925050503d8060008114610838576040519150601f19603f3d011682016040523d82523d6000602084013e61083d565b606091505b5050905080610881576040517f08c379a000000000000000000000000000000000000000000000000000000000815260040161087890611251565b60405180910390fd5b505050565b60006108913061064f565b15905090565b600060019054906101000a900460ff166108e6576040517f08c379a00000000000000000000000000000000000000000000000000000000081526004016108dd906112e3565b60405180910390fd5b6108f18383836109bd565b505050565b6000610958826040518060400160405280602081526020017f5361666545524332303a206c6f772d6c6576656c2063616c6c206661696c65648152508573ffffffffffffffffffffffffffffffffffffffff16610b149092919063ffffffff16565b90506000815111156109b85780806020019051810190610978919061133b565b6109b7576040517f08c379a00000000000000000000000000000000000000000000000000000000081526004016109ae906113da565b60405180910390fd5b5b505050565b600060019054906101000a900460ff16610a0c576040517f08c379a0000000000000000000000000000000000000000000000000000000008152600401610a03906112e3565b60405180910390fd5b600073ffffffffffffffffffffffffffffffffffffffff168373ffffffffffffffffffffffffffffffffffffffff161415610a7c576040517f08c379a0000000000000000000000000000000000000000000000000000000008152600401610a739061146c565b60405180910390fd5b82603560006101000a81548173ffffffffffffffffffffffffffffffffffffffff021916908373ffffffffffffffffffffffffffffffffffffffff16021790555081603560146101000a81548167ffffffffffffffff021916908367ffffffffffffffff16021790555080603660006101000a81548167ffffffffffffffff021916908367ffffffffffffffff160217905550505050565b6060610b238484600085610b2c565b90509392505050565b606082471015610b71576040517f08c379a0000000000000000000000000000000000000000000000000000000008152600401610b68906114fe565b60405180910390fd5b610b7a8561064f565b610bb9576040517f08c379a0000000000000000000000000000000000000000000000000000000008152600401610bb09061156a565b60405180910390fd5b6000808673ffffffffffffffffffffffffffffffffffffffff168587604051610be291906115f9565b60006040518083038185875af1925050503d8060008114610c1f576040519150601f19603f3d011682016040523d82523d6000602084013e610c24565b606091505b5091509150610c34828286610c40565b92505050949350505050565b60608315610c5057829050610ca0565b600083511115610c635782518084602001fd5b816040517f08c379a0000000000000000000000000000000000000000000000000000000008152600401610c979190611665565b60405180910390fd5b9392505050565b600080fd5b600067ffffffffffffffff82169050919050565b610cc981610cac565b8114610cd457600080fd5b50565b600081359050610ce681610cc0565b92915050565b600060208284031215610d0257610d01610ca7565b5b6000610d1084828501610cd7565b91505092915050565b6000819050919050565b610d2c81610d19565b82525050565b6000602082019050610d476000830184610d23565b92915050565b600073ffffffffffffffffffffffffffffffffffffffff82169050919050565b6000610d7882610d4d565b9050919050565b610d8881610d6d565b8114610d9357600080fd5b50565b600081359050610da581610d7f565b92915050565b600060208284031215610dc157610dc0610ca7565b5b6000610dcf84828501610d96565b91505092915050565b610de181610d6d565b82525050565b6000602082019050610dfc6000830184610dd8565b92915050565b60008060408385031215610e1957610e18610ca7565b5b6000610e2785828601610d96565b9250506020610e3885828601610cd7565b9150509250929050565b600080600060608486031215610e5b57610e5a610ca7565b5b6000610e6986828701610d96565b9350506020610e7a86828701610cd7565b9250506040610e8b86828701610cd7565b9150509250925092565b7f4e487b7100000000000000000000000000000000000000000000000000000000600052601160045260246000fd5b6000610ecf82610d19565b9150610eda83610d19565b9250827fffffffffffffffffffffffffffffffffffffffffffffffffffffffffffffffff03821115610f0f57610f0e610e95565b5b828201905092915050565b6000610f2582610d19565b9150610f3083610d19565b925082821015610f4357610f42610e95565b5b828203905092915050565b610f5781610d19565b8114610f6257600080fd5b50565b600081519050610f7481610f4e565b92915050565b600060208284031215610f9057610f8f610ca7565b5b6000610f9e84828501610f65565b91505092915050565b600082825260208201905092915050565b7f496e697469616c697a61626c653a20636f6e747261637420697320616c72656160008201527f647920696e697469616c697a6564000000000000000000000000000000000000602082015250565b6000611014602e83610fa7565b915061101f82610fb8565b604082019050919050565b6000602082019050818103600083015261104381611007565b9050919050565b600061105582610d19565b915061106083610d19565b9250817fffffffffffffffffffffffffffffffffffffffffffffffffffffffffffffffff048311821515161561109957611098610e95565b5b828202905092915050565b7f4e487b7100000000000000000000000000000000000000000000000000000000600052601260045260246000fd5b60006110de82610d19565b91506110e983610d19565b9250826110f9576110f86110a4565b5b828204905092915050565b60006040820190506111196000830185610dd8565b6111266020830184610d23565b9392505050565b7f416464726573733a20696e73756666696369656e742062616c616e6365000000600082015250565b6000611163601d83610fa7565b915061116e8261112d565b602082019050919050565b6000602082019050818103600083015261119281611156565b9050919050565b600081905092915050565b50565b60006111b4600083611199565b91506111bf826111a4565b600082019050919050565b60006111d5826111a7565b9150819050919050565b7f416464726573733a20756e61626c6520746f2073656e642076616c75652c207260008201527f6563697069656e74206d61792068617665207265766572746564000000000000602082015250565b600061123b603a83610fa7565b9150611246826111df565b604082019050919050565b6000602082019050818103600083015261126a8161122e565b9050919050565b7f496e697469616c697a61626c653a20636f6e7472616374206973206e6f74206960008201527f6e697469616c697a696e67000000000000000000000000000000000000000000602082015250565b60006112cd602b83610fa7565b91506112d882611271565b604082019050919050565b600060208201905081810360008301526112fc816112c0565b9050919050565b60008115159050919050565b61131881611303565b811461132357600080fd5b50565b6000815190506113358161130f565b92915050565b60006020828403121561135157611350610ca7565b5b600061135f84828501611326565b91505092915050565b7f5361666545524332303a204552433230206f7065726174696f6e20646964206e60008201527f6f74207375636365656400000000000000000000000000000000000000000000602082015250565b60006113c4602a83610fa7565b91506113cf82611368565b604082019050919050565b600060208201905081810360008301526113f3816113b7565b9050919050565b7f56657374696e6757616c6c65743a2062656e6566696369617279206973207a6560008201527f726f206164647265737300000000000000000000000000000000000000000000602082015250565b6000611456602a83610fa7565b9150611461826113fa565b604082019050919050565b6000602082019050818103600083015261148581611449565b9050919050565b7f416464726573733a20696e73756666696369656e742062616c616e636520666f60008201527f722063616c6c0000000000000000000000000000000000000000000000000000602082015250565b60006114e8602683610fa7565b91506114f38261148c565b604082019050919050565b60006020820190508181036000830152611517816114db565b9050919050565b7f416464726573733a2063616c6c20746f206e6f6e2d636f6e7472616374000000600082015250565b6000611554601d83610fa7565b915061155f8261151e565b602082019050919050565b6000602082019050818103600083015261158381611547565b9050919050565b600081519050919050565b60005b838110156115b3578082015181840152602081019050611598565b838111156115c2576000848401525b50505050565b60006115d38261158a565b6115dd8185611199565b93506115ed818560208601611595565b80840191505092915050565b600061160582846115c8565b915081905092915050565b600081519050919050565b6000601f19601f8301169050919050565b600061163782611610565b6116418185610fa7565b9350611651818560208601611595565b61165a8161161b565b840191505092915050565b6000602082019050818103600083015261167f818461162c565b90509291505056fea26469706673582212203026d17721a070a47b886ed6f299fe10b3cad542f50832528f0ed2a51253ba4a64736f6c634300080b0033",
  "linkReferences": {},
  "deployedLinkReferences": {}
}